:020000040001F9
:10B00000A8300020D9B00100F3B00100F5B0010074
:10B010000000000000000000000000000000000030
:10B02000000000000000000000000000F7B0010078
:10B030000000000000000000F9B00100FBB00100BA
:10B04000B1B30100FDB00100EDB40100FDB001009D
:10B05000FDB0010000000000F5B10100FDB00100ED
:10B06000FDB00100FDB00100FDB00100FDB0010028
:10B07000FDB00100FDB00100FDB00100FDB0010018
:10B08000FDB0010005B40100FDB00100FDB00100FC
:10B0900025B40100FDB001002DB40100FDB0010098
:10B0A000FDB00100FDB00100000000000000000044
:10B0B0000000000000000000000000000000000090
:10B0C0000448854600F066F800480047A1D2010018
:10B0D000C046C046A83000200321094802680A4340
:10B0E0000260084802680A43026007488047074830
:10B0F0000047FEE7FEE7FEE7FEE7FEE7FEE70000AB
:10B1000024050040540500404DB40100C1B00100C9
:10B1100030B50B46014600202022012409E00D46EF
:10B12000D5409D4205D31D469540491B2546954077
:10B1300040191546521E002DF1DC30BD03460B436D
:10B140009B0703D009E008C9121F08C0042AFAD2DD
:10B1500003E00B780370401C491C521EF9D2704763
:10B16000D2B201E00270401C491EFBD2704700229F
:10B17000F6E710B513460A4604461946FFF7F0FFF6
:10B18000204610BD421C0178401C0029FBD1801ACA
:10B1900070470000064C0125064E05E0E36807CC29
:10B1A0002B430C3C98471034B442F7D3FFF78CFF85
:10B1B000C4ED0100E4ED010030B58C180278401CAC
:10B1C00013071B0F01D10378401C120906D1027826
:10B1D000401C03E005780D70401C491C5B1EF9D132
:10B1E00001E00B70491C521EFBD1A142E6D30020A6
:10B1F00030BD0000F0B50024FF268BB001360125DC
:10B2000027460694304602F027FD002807D0544810
:10B210004068284203D0304602F016FD2C43361D0C
:10B220006D007F1CB6B2042FECD3FF257D35284678
:10B2300002F012FD002809D0284602F005FD68073B
:10B24000044306AA0121002002F0EAFC454D200734
:10B2500014D00127002627420CD04348B200111811
:10B2600008690969C004C00E8903AA58890F002A19
:10B2700000D090477F00761C042EECD3002C6DDAB2
:10B2800000200890401E63E0281940300778B90676
:10B29000890E009100214156491C49D009A9009806
:10B2A00002F07FF9002843D0B8090190009801F01E
:10B2B000A5FA80002F580198002F02D0032802D051
:10B2C0000DE0032834D1009808ABC208410794462A
:10B2D000985C490F01228A401043624698540098B6
:10B2E000052109078000401807210902401800685D
:10B2F00006A98003800F0290009802F052F90028FE
:10B30000029802D0022802D012E0032810D101983E
:10B31000032808D1029802281ED00221009802F0CA
:10B3200061FC761CF6B2002F02D001990098B84754
:10B33000641C042CA8D3002E10D06A4601210020E2
:10B3400002F06EFC06990098884207D00690089893
:10B3500000263446099097E70321DFE70BB0F0BDE4
:10B360000063004080260020006500408307FF2224
:10B37000DB0E9A408907090E994000280BDA000776
:10B38000000F0838830808489B001818C3699343C6
:10B390000B43C3617047830804489B001B1818685F
:10B3A000904308431860704700ED00E000E400E0BF
:10B3B000F8B5FF20013002F0FCF8002401250E4E04
:10B3C0000E4F002807D00E4804600120B0607D7049
:10B3D000002001F02BFAFF20053002F0EAF80028E7
:10B3E00008D00748001D04600220B060BD70012035
:10B3F00001F01CFAF8BD0000000300406C2600209C
:10B400000001004010B506490020086048608860CF
:10B41000C860034940390860486003F089F910BDED
:10B420004011014010B503F0F5F810BD10B5064805
:10B430004068002805D08047002801D000F01CFAA1
:10B4400010BD01F0F5FD10BD0421002010B501F084
:10B450003DFE002805D01F491D484860C8131E49FD
:10B4600088611E48018CC9B201290BD1828C120758
:10B4700008D1028D1206120F042A03D1828D120602
:10B48000120F0AD0012921D1818C09071ED1018D0B
:10B490000906090F0A2904D007E0114A0121916029
:10B4A000F5E7828D1206120F05D00D290ED1808D81
:10B4B0000006000F0AD10B480168012904D00A498F
:10B4C000016001680129FCD1C021416110BD00006B
:10B4D000DFFF07C000050040006C0040C00F00F017
:10B4E0000006004000EC06407593000010B50249CC
:10B4F000024803F03DFA10BDC8260020002000409D
:10B5000010B5024A024900F02FF810BDF5CB01003A
:10B51000E820002030B47446641E2578641CAB42D9
:10B5200000D21D46635D5B00E31830BC184702E0A3
:10B5300008C8121F08C1002AFAD1704770470020BE
:10B5400001E001C1121F002AFBD17047202804DA54
:10B55000012181400348014201D0012070470020B1
:10B5600070470000FC06FFBCF8B516460F460446BF
:10B57000002503E03946B047641C6D1C2078002884
:10B58000F8D12846F8BDF7B584B0064600251788DF
:10B59000158020300290407B1446002806D03A46A1
:10B5A0002146059800F074FD050009D1B078002807
:10B5B00023D0059886462088001DB84202D90C2069
:10B5C00007B0F0BD684679DF0028F9D12188032053
:10B5D0007246505420881921401C80B2208011549A
:10B5E00020887146401C80B220804118684600883F
:10B5F00003F052FA218840182080F078002817D0F4
:10B60000218803230A46F356C91C0598B942D6D8A7
:10B610000221815421880122491C89B2218042548F
:10B620002188491C89B2218043542088401C2080F5
:10B630007068002817D021880023C3560A46C91C09
:10B640000598B942BBD80221815421880A22491C9D
:10B6500089B2218042542188491C89B221804354F7
:10B660002088401C2080308900280AD00094304671
:10B670000197062202210830059B03F05BFA0500C2
:10B680009ED1308A00280AD00094304601970722C4
:10B6900003211030059B03F04DFA050090D1308B4B
:10B6A00000280AD000943046019715221421183042
:10B6B000059B03F03FFA050082D1306A002806D0CE
:10B6C0003B462246059901F019F90500D8D1706A68
:10B6D000002806D03B462246059901F0DFFE050012
:10B6E000CED10298007B002807D03B462246304648
:10B6F000059902F07FFE0500C2D13078002807D0FE
:10B700003B4622463046059901F0FCFE0500B7D1C4
:10B71000284655E7174A0021535C002B01D001222F
:10B7200003E0491C0629F7D300221349012806D05B
:10B7300002280BD0032810D0042818D112E0487832
:10B74000002803D0002A01D0012070478878002803
:10B7500003D0002A01D002207047C878002801D009
:10B76000032070470879002801D00420704700208A
:10B7700070470000692000208424002010B50122B9
:10B780000221002000F0BCFE002801D0072812D1C1
:10B7900007220221012000F0B3FE002801D0072873
:10B7A00009D100210A22084600F0AAFE002801D093
:10B7B000072800D1002010BD10B5022000F056FD72
:10B7C00010BD000070B50024064D06E06968E00079
:10B7D000085C012101F082FF641C28788442F5D3C3
:10B7E000002070BD94200020F8B515460C46064692
:10B7F000052A01D20720F8BD02F048F8002803D13D
:10B8000002F016F80028F6D1104900204E600C70A6
:10B81000C8608D6008610E4D0DE0E0006968801918
:10B82000009181786A46517000780A4A694601F0B1
:10B83000A1FF0028DFD12046641EE4B20028ECD12D
:10B84000054A0021024800F04DF8F8BD9420002080
:10B8500088ED010005CF010081CA0100BFF34F8FC1
:10B8600004490348C860BFF34F8F00BFFDE70000E5
:10B870000400FA0500ED00E00EB5002102900091F1
:10B880006A4601910148FFF7E9FF0EBD0140000043
:10B8900010B58268C368934203D001F087F9002095
:10B8A00010BD052010BD002906D0002A02D0531E6D
:10B8B000134203D0092070470E2070470160838037
:10B8C00000218160C1600846704710B58268C36876
:10B8D0009A1A83889A4203D801F072F9002010BDA9
:10B8E000042010BD0A4B5B68002B07D0002A07D04C
:10B8F000002805D00068037C002B03D00820704787
:10B900000720704700230374417442611846704752
:10B91000B8200020FFB507469007002581B01E46DD
:10B920001446002825D1002C23D002F061FC3046BB
:10B93000114EF060304610300570457002998170EC
:10B9400044607560357001240C48757024050460EE
:10B9500003211420FFF70AFD09480460094CA76081
:10B9600003211120FFF702FD6068B060002005B0E0
:10B97000F0BD0720FBE70000A820002080E200E0E7
:10B9800000E100E000150140FEB51F4B5B68002B95
:10B9900030D000282ED0052901D20720FEBD4369F2
:10B9A000002B27D0437C012B26D000270291044690
:10B9B0000025694616460D70684600F0D1F801A8CA
:10B9C00003F0A2F8002819D0012101700F4944604A
:10B9D00049688160029907614661C16068460A4909
:10B9E000007948706846007800F0D8F802F054FEFC
:10B9F0002846FEBD0820FEBD0F46D7E76846042551
:10BA0000007800F0CBF8F3E7B820002000150140E3
:10BA100010B50849496800290AD0002808D04169B2
:10BA2000002905D000210174022102F05DFE10BD45
:10BA3000082010BDB820002070B50B4D0146AE782F
:10BA40000A48FFF725FF0446002E0AD00020A87000
:10BA5000691C0122C81D01F061FF002801D0FFF719
:10BA60000BFF204670BD0000C820002004270020E6
:10BA7000F0B5274E89B01F460D00044672601CD0F9
:10BA8000A888296882B22348FFF70DFF002815D146
:10BA9000A889A96882B21F481030FFF704FF002868
:10BAA0000CD120221C496846FFF748FB60690690CC
:10BAB000207C002804D0012103E0072009B0F0BD5C
:10BAC0000021684601750777607C002800D00E20B1
:10BAD00069464875E0680290A0680390206801906C
:10BAE000606800900A480D4A083001F0D7FE00282F
:10BAF000E4D1B0702068401CE0D00548083001F067
:10BB00003BFF03490122491CC81D01F007FFD5E78F
:10BB1000C82000200427002090ED0100C9E80100A2
:10BB200010B501460C48FFF7D0FE040012D10B48B7
:10BB300001F0ECFF00280DD1084907480839FFF74C
:10BB4000A7FE002806D1054901220839034801F063
:10BB50007DFF0446204610BD14270020D020002081
:10BB600030B5EFF3108172B6094A54680123002CF6
:10BB700004D00370002900D162B630BD5360054B7C
:10BB80001D68054C254015601C6000220270F1E71D
:10BB9000DC20002080E100E0FC06FFBC08494A6888
:10BBA000002A0CD000280AD1EFF3108072B60A6880
:10BBB000044B1A6000224A60002800D162B6704728
:10BBC000DC20002000E100E0F8B5074608680C46DC
:10BBD0000526411C01253602002906D02946814050
:10BBE00019488160206801F0E2FF6068411C02D0C2
:10BBF000002101F0D3FF3968A06989194862607D8E
:10BC0000217D3A6808439119C866386806CC8019C6
:10BC10004261C160207B083C012814D1A068411C0E
:10BC200002D0002101F0BAFFE068411C05D0854038
:10BC300005488560E06801F0BAFF3A68E16892194A
:10BC4000A06891601061F8BD00050050F0B50C4689
:10BC500093B01F216A461180072600279180002893
:10BC600009D0C17849070DD502A9FFF78CFC00283F
:10BC700009D102AD01E000251780002C0ED0E0783C
:10BC8000002802D0304613B0F0BD01AA0AA9204610
:10BC9000FFF779FC0028F6D10AAA02E068460022E4
:10BCA000878068468088C3B268460088C1B228464B
:10BCB00072DFE8E7FFB581B01E460A9F1346040015
:10BCC00047D0002B45D0504D012028700020E8704F
:10BCD000202219464D48FFF731FA00206F61C0431A
:10BCE0002E612881284607211830FFF740FA47487F
:10BCF0003C212030FFF73BFA444821782030017086
:10BD0000A1788170E178C170617841703F4A6569BE
:10BD100023695563114613632031E368A268CB6041
:10BD20008A603A49E369A269CB638A63616A002940
:10BD30001AD001463C310246483241628A60636A49
:10BD40001B880B80616A436A898899800021436A55
:10BD500007E00E2005B0F0BD656AAD686D5C555416
:10BD6000491C9D888D42F7D8A16A00291CD0274A1A
:10BD7000943211460C398A608162A36A9B888B8059
:10BD8000A16A836A098819800021836A04E0A56A90
:10BD9000AD686D5C5554491C9D888D42F7D82C21A7
:10BDA0000A5D1A4940310A73216A002909D01649EF
:10BDB0000A310162226A52884A80216A026A09882D
:10BDC00011806168002900D04160104A0E490020AE
:10BDD000B3322031C3001B1A85009B180C68401C2D
:10BDE00063510828F6DB094A0020EB320301850085
:10BDF0009B188C68401C63510828F7DB03480299A4
:10BE00002030FFF723FFA5E75020002084240020E6
:10BE100010B50188134C102915D0112919D01B29F0
:10BE200010D1007A00280DD1E0780521401CFFF7E1
:10BE30006FF9084600F036F8002803D06169002940
:10BE400000D0884710BD817D0129FBD180882081E9
:10BE500010BD00216171808821898842F8D10120BC
:10BE6000E8E700005020002010B574DF0B4C0120E3
:10BE700060710B490620C87000210948FFF7E6FEF3
:10BE8000002809D1E07800F00DF8002803D061699E
:10BE9000002900D08847002010BD0000502000205D
:10BEA000A4240020F1B53F4C88B0207800280AD0A7
:10BEB0000898E07006A800F0E9FE06980125002821
:10BEC00004D065706AE0082009B0F0BD354800274D
:10BED00007211830FFF74BF9334E7078002802D055
:10BEE000E078012807D0B07800280CD0E07801284D
:10BEF00001D0022807D12169002903D0257108202B
:10BF0000884700E027710898FFF704FCE07021697A
:10BF1000002909D0032801D0042805D13078002851
:10BF200002D06079002811D0A77118216846FFF768
:10BF30001EF9684607700772E1781A480B0018303E
:10BF4000FFF7E8FA052E080F191D2000A57107203C
:10BF50008847EAE7A5700190684605704782078226
:10BF600013E00221A170019068460570B1894182F9
:10BF70003189018209E0684602F084FA02E06846ED
:10BF800002F0ACFAE078002803D0684673DF00289E
:10BF90009AD12169002901D0A0788847002093E731
:10BFA000A770F6E7502000208424002070B50546D5
:10BFB00001461C220E48FFF7C1F80E4C00262670E1
:10BFC0002968002906D00822201DFFF7B7F8201D98
:10BFD0007ADF02E00748001D7BDF002807D1401E02
:10BFE00060806670044A00210448FFF77BFC70BD46
:10BFF0005026002080200020A5EA010070ED0100FD
:10C00000F8B5214C0146028800261E48E589102A11
:10C0100013D01E4F112A1FD0122A2BD0502A1AD10A
:10C02000881DC988A94216D14189022913D10C3033
:10C0300000F0FEF800280CD112E08A880446428005
:10C04000104808220C301831FFF778F86670002D80
:10C0500001D100F09BFCF8BD0021C943418046702E
:10C060003868FFF7D5FC0028F5D0A1690029F2D087
:10C070008847F8BD034808220C300831FFF75EF806
:10C08000E7E70000802000205026002070ED01002E
:10C090007CB5054608880C460930904201D90C2031
:10C0A0007CBD684671DF0028FAD1218808206854D9
:10C0B00020881B21401C80B220802954208800A9A0
:10C0C000401C80B22080401906220131FFF736F86B
:10C0D00020886946801D80B220800978002900D020
:10C0E000012129542088401C208000207CBD0000B4
:10C0F00010B50446FFF784FF2146064800F040F8DB
:10C10000204601F0EBFD2046FFF782FE204600F0BE
:10C1100039F910BDFC23002030B5184B0D46040042
:10C120000FCB85B003936B4607C324D0002D22D0DC
:10C130000020C043A0822868A0610020A07521468D
:10C14000684663DF002814D1217868468174012194
:10C150000182A21C04A90120A0DF002809D12946E0
:10C16000204602F07AF8002803D12946204602F042
:10C170002EFB05B030BD0E20FBE7000074ED010082
:10C1800010B500281BD0002919D00A88102A17D012
:10C19000112A17D0502A12D104468A1DC888238A32
:10C1A0001231984202D15389022B0FD0A3889842B2
:10C1B00005D1A369002B02D052892046984710BDB3
:10C1C000898801E00021C943818210BD084600F042
:10C1D0002FF8002800D00120A07510BD07B584B04D
:10C1E00000280DD0828A114B9A420BD0827D002A02
:10C1F00008D06A46128B142A06D9072007B000BD62
:10C200000E20FBE70820F9E700220092019202923B
:10C21000039282896B461A80039106A9029101213B
:10C220009970808A6946A6DFE8E70000FFFF0000FA
:10C230004178027808021043C007C00F7047000021
:10C240000149085C7047000040ED01000549095CA8
:10C2500005480069C840C007C00F00D00120012177
:10C260004840704740ED01000005005005490B5C57
:10C2700005494A6801209840034693438B6010406B
:10C28000C86070473CED01000005005010B503493F
:10C29000085C012101F0B8FC10BD00003CED01007C
:10C2A00010B50349085C002101F0AEFC10BD000090
:10C2B0003CED01000549095C05484068C840C007DD
:10C2C000C00F00D001200121484070473CED010023
:10C2D000000500507CB50024074E2546305D012244
:10C2E000009500231146019501F01CFC641C042CF0
:10C2F000F4D300F003F87CBD3CED010010B5002440
:10C300002046FFF7C3FF641C042CF9D310BD10B501
:10C3100000242046FFF7C4FF641C042CF9D310BD91
:10C320000246002010B5C043054B00215C5C9442DE
:10C3300001D1084610BD491C0429F7D310BD0000E7
:10C3400040ED010070B50E4E00250C46306000290E
:10C350000DD0012000F0AEF8002801D0022005E049
:10C36000002000F0A7F8002800D00B202070706893
:10C37000002802D1FFF702FA0546284670BD0000EA
:10C380004420002010B51C4C0188606810290DD095
:10C3900011290AD1401E606007D1FFF7EFF900288C
:10C3A00003D02168002900D0884710BD00281ED185
:10C3B00000210122084600F0A3F8002801D0072838
:10C3C00011D107220221012000F09AF8002801D0A3
:10C3D000072808D104220221002000F091F800284B
:10C3E00005D0072803D02168002900D0884760685D
:10C3F000401C606010BD00004420002010B50020EB
:10C4000000F0BCF9002801D0062807D1012000F077
:10C41000B5F9002801D0062800D1002010BD000089
:10C42000F3B581B00D460198FFF77AFF0446042862
:10C4300013D21D481D4F1E4E002D27D0012D0DD0AB
:10C44000022D0AD160002018C0194578002D04D0B3
:10C45000F168002901D028468847FEBD61006118B7
:10C460007D5CCF19797800290BD071680A2251437D
:10C470000F4A8068921CFFF787FA002801D10198C3
:10C48000B0700B48B97810300155DFE78068FFF7CE
:10C49000BFFA0748610061181030C919005D8D7836
:10C4A000A842D3D0FEBD000044ED01005824002076
:10C4B0003020002010B5FFF7C9FE10BD014610B5B1
:10C4C0000D480429808806D007290CD00A2901D1FB
:10C4D00002F02EF810BD132176DF09E00028F9D014
:10C4E000FFF7CAF910BD05498842FBD1FFF7BCFC34
:10C4F0000828F3D110BD0000E81F0020FFFF000056
:10C5000070B50023042811D2440004190D4D012AEE
:10C5100002D101290DD0002246008019094E801950
:10C5200000290CD0012906D0022906D0072318467D
:10C5300070BD0E30C2B22A55F9E74270F7E782703B
:10C54000F5E700005824002010B5054A0146127A8C
:10C550000020D20702D0084600F050F810BD0000BD
:10C5600030200020F8B506461F4800248660C260CF
:10C5700041600F46B00720D500250122114628460C
:10C58000FFF7BEFF6D1C0446042D02D2002CF4D030
:10C5900013E0002C11D17A0804211448FFF724F984
:10C5A00004000AD1FFF70EF9040006D10F48104A23
:10C5B0000021001FFFF796F90446F00701D0FFF7AE
:10C5C00089FE002C0ED109480A4A00210C38FFF7D9
:10C5D00089F9040006D10548074A01210838FFF708
:10C5E00081F904462046F8BD3020002050ED0100BE
:10C5F0008DC7010021D10100B9B70100F8B55D4C2C
:10C60000054660780026002803D000206070FFF700
:10C6100075FE0120584F2B00FEF77CFF18970D0D7B
:10C620002E3D4A5F64686F686FA977777777779751
:10C630009A9DA0A9A9950020FFF73CFE00280AD0EA
:10C640000020FFF723FE022D02D1E120C0000BE005
:10C650007D20400108E00020FFF722FE022D01D1DD
:10C66000C82001E0FF20913025706421FEF750FDC5
:10C670006168414300222BE00020FFF71BFE0028E9
:10C6800005D00020FFF702FE19204001ECE7002052
:10C69000FFF706FEE4E70020FFF70CFE002803D0BA
:10C6A0000020FFF7F3FDD3E70020FFF7F9FDD9E7FE
:10C6B0000020FFF7FFFD002803D00020FFF7E6FD74
:10C6C00002E00020FFF7ECFD2570606841000022C9
:10C6D0003868FFF759F9064635E00020FFF7C6FD38
:10C6E000257007E000203FE025702CE060700120FD
:10C6F000FFF7BCFD00226168EAE760700120FFF7E8
:10C70000B5FD606881004118E1E77868FFF780F9BE
:10C7100006461120401B01D0002E03D00220FFF757
:10C72000B5FD10E001280BD9C82148436421FEF76C
:10C73000EFFC6168002241437868FFF725F906465F
:10C740000220FFF7ADFD3046F8BDFFF7D7FDCBE780
:10C75000FFF7D4FDC6E7FFF7D1FD04E0FFF7CEFDFC
:10C760000020FFF79DFD0120FFF79AFDBCE7FFF7D2
:10C77000CEFDB9E73020002044ED010010B5FFF7F1
:10C780005FFD032101F01DFA002010BD10B50078F7
:10C790000221FFF745FE10BD0022D2438300044969
:10C7A0000428CA5002D308182030027770470000CE
:10C7B00080260020F0B50025ED43002A02D000239A
:10C7C000042601E0042308260B4C04E09F00E759EF
:10C7D0007F1C04D05B1CB342F8D32846F0BD26185A
:10C7E0005DB2203635709E00A151002AF5D1E118C6
:10C7F00020310877F1E7000080260020024909185F
:10C80000202008567047000080260020002807D00E
:10C810000449814204D80449814201D9012070476A
:10C8200000207047182100202821002070B5084CF6
:10C83000050009D010342168002907D0086820605D
:10C84000496828468847F6E70834F4E770BD0000D9
:10C850006C260020F8B52348416800293ED00E68B8
:10C8600021494C6887688078E11B0D022D0AED1C78
:10C87000002814D101201D4A000450601B4A403A90
:10C8800050601B49400008601A4908601A4901209D
:10C8900008602F2000F096FE124901208870B542F2
:10C8A00000D23546E81900020F4B000A40331860E9
:10C8B0000D4A5168001B091B0902090A0002000AFF
:10C8C000C91C814209D9506818602F2000F07AFEF7
:10C8D00001200749400480390860F8BD01F088FC58
:10C8E000F8BD0000A82000200015014040130140C1
:10C8F00080E200E000E100E000100140F8B50646EB
:10C90000108814468446801D0D46984201D90C209B
:10C91000F8BD32880720062AFAD31927FF01184BE1
:10C92000BA4201D99A42F3D171880629F0D3B942AB
:10C9300001D99942ECD19A4203D0994201D08A425E
:10C94000E6D805216046295420881221401C80B277
:10C95000208029542088401C80B2208041193088D2
:10C9600002F09AF82188401880B22080411970881E
:10C9700002F092F82188401820800020F8BD0000C5
:10C98000FFFF000010B5FEF777FF10BDF8B51648A1
:10C9900000F08EFB144D00260C3D144C002807D0EF
:10C9A000616900291CD001206A461070684616E0B3
:10C9B0002878002805D06169002911D068460670E2
:10C9C0000DE0687800280DD0A168094800220068B1
:10C9D000FEF7DAFF002803D0A169002900D08847BC
:10C9E0002E70F8BD6168F0E78C20002050260020F2
:10C9F00070ED01007FB50C46002802D0012004B084
:10CA000070BD20790026002806D01B4D01281CD0BF
:10CA1000022828D00F20F2E702960396E0680190E2
:10CA2000694601A801F020FB00280AD002988188FD
:10CA3000E1800088208169460988029801F08EFB18
:10CA400000E00A2002212171D9E70C4B6A4600213F
:10CA5000A01D01F0C7FA002807D0084908398E60E8
:10CA6000CE600A28CBD12846C9E7044881880198BE
:10CA700001F074FBF5E700001D1D0000F42000200C
:10CA8000F8B500260124154D23E06968F000471829
:10CA9000387821462A698140114218D08A432A6198
:10CAA00000F0BCFE3A782146EB68914019400346FD
:10CAB000934099420BD17978012901D0012100E0FE
:10CAC00000217B684140002B01D010469847761C1E
:10CAD000F6B228788642D8D3F8BD00009420002012
:10CAE00010B50E4900230A784C78A24212D0521C8D
:10CAF000D2B20A70022A00D10B700A78074B92005A
:10CB000018339A580260886810180002000A88607A
:10CB1000012010BD0360002010BD0000A8200020EF
:10CB200010B5047800222300FEF7F4FC0706050781
:10CB30000D1D262C06000A7010BD01220A70028904
:10CB40008A81828814E002220A7002898A8182889E
:10CB5000CA81C2688A60007C062802D0002008745E
:10CB600010BD0120FBE703220A70C2888A81028976
:10CB7000CA81C068886010BD04230B70C08888819A
:10CB8000CA8110BD0520087010BD000070B5064DAB
:10CB900006460024A0002958002901D030468847C5
:10CBA000641C082CF6D370BD982700208268838807
:10CBB0001A4003689A5C0A708168491C816070475A
:10CBC000C26883881A4003689954C168491CC160CF
:10CBD0007047000002490A7882430A7070470000DB
:10CBE000EC20002002490A7802430A7070470000D6
:10CBF000EC20002010B50446C0B2FEF791FF20469D
:10CC000010BD0000F8B506461C481F4600781546C2
:10CC10000C46C0070AD03046FFF7F8FD002807D0C1
:10CC2000002C07D0A00507D00620F8BD0120F8BDD4
:10CC30000220F8BD0320F8BD3068A04204D8A80245
:10CC400071680019884201D90520F8BD002D10D067
:10CC5000684601F00BF900280DD000980221C0C0F1
:10CC60000170A101090C8180058101F0ADF900205E
:10CC7000F8BD0420F8BD0720F8BD0000E420002026
:10CC800010B5084601F044F910BD0000002804D09A
:10CC90000349496E0160002070470320704700007F
:10CCA00024270020F8B507461E481E460078154682
:10CCB0000C46C0070ED03846FFF7A8FD00280BD061
:10CCC000002D0BD0002C09D028462043800707D028
:10CCD0000620F8BD0120F8BD0220F8BD0320F8BDF4
:10CCE0003868A04204D8B10078680919884201D296
:10CCF0000520F8BD002E11D0684601F0B7F80028D5
:10CD00000ED0009806990760416001210172C5604C
:10CD10000461868201F058F90020F8BD0420F8BDB6
:10CD20000720F8BDE420002070B5002801D00120C4
:10CD300070BD184C0025207B002801D0257301E030
:10CD400000F0A0F820780300FEF7E4FB08220508B5
:10CD50000B0E22111C2200F01FF870BD00F082F8AB
:10CD600070BD00F065F870BD00F03CF870BD0620A5
:10CD7000207060880749000120394018406801F0A0
:10CD80003DF870BD07202070656001F045F870BD6A
:10CD90000F2070BD9828002070B5104900208A1C13
:10CDA0000D460346203D0C18A67A002E08D0A3722B
:10CDB00004016419A689002E02D1A47B012C08D09D
:10CDC000401C80B20228EED30B704B8004484B60AD
:10CDD00070BD108000F046F870BD0000982800205B
:10CDE0001D1D000010B50F4C608801012046203841
:10CDF0000818818900290BD0052020700A480221DB
:10CE000081800168002301220848FFF7FBFE10BD66
:10CE10004168002301220548FFF7F4FE0421217038
:10CE200010BD000098280020FC20002018210020C0
:10CE300038B50A4908480B6889884268890059183A
:10CE40005388032404700020DB1C00909BB204482C
:10CE5000FFF728FF38BD000098280020FC200020A4
:10CE60001821002010B506494888091D01F04CF929
:10CE7000002802D0FFF7DCFF10BDFFF7B3FF10BDA5
:10CE800098280020F0B51D481D4907780246012565
:10CE900002268C88203A3B00FEF73CFB080517175A
:10CEA0001A212C2C16170189491C0181002141806F
:10CEB00001730B01D35C002B08D000234418491CDC
:10CEC00089B2A3720229F4D30570F0BD0123F5E7FE
:10CED00042685288D21CA2188A800670F0BD45882C
:10CEE0000B682D01AA1855680D60536014818E805F
:10CEF000062100E007210170F0BD00009828002005
:10CF0000FC200020F8B50746104E0125BD403068D2
:10CF1000FEF77EFD00280DD10D4C2069284207D177
:10CF2000384600F07BFC0028E06804D0284303E08A
:10CF3000A8432061F8BDA843E0602069002228438F
:10CF40002061A1683068FEF71FFDF8BD88ED010083
:10CF5000942000208188054A914204D0008800284E
:10CF600001D001207047002070470000FFFF000043
:10CF7000F8B50F46002804D00120FFF72BFE012052
:10CF8000F8BD397900290AD00026254D01290BD09A
:10CF9000244C022920681FD003293BD125E000F052
:10CFA0003BFF0121397133E000200101695C022956
:10CFB0000BD0401C80B20228F7D30220FFF712FEEC
:10CFC0000120FFF707FE1848F8BD0401601940680A
:10CFD00000F014FF2E551BE00146002301221348E8
:10CFE000FFF710FE0221A18011E000F007FF0C49BD
:10CFF0002368203149880A01094951184D68256084
:10D000004B60A3880B810221A18005498E543E719B
:10D010000028D9D00120FFF7DDFD0E20F8BD00006B
:10D0200078280020FC2000201D1D00001821002071
:10D03000F8B51E4C2078002836D0E068002600287D
:10D040000CD00025607800282ED1684652DF0528D4
:10D0500006D0002806D0FEF70FFC0BE00125F1E713
:10D06000012607E0009800F003FB2169002901D0A8
:10D0700000988847002D13D16078002814D160886B
:10D0800069460880A06861DF052804D0002804D024
:10D09000FEF7F2FB04E0012502E0E168A0688847A2
:10D0A000002ECFD0002DE5D0F8BD000004210020D7
:10D0B000418805480288914204D34088814201D8C2
:10D0C0000120704700207047842000201048018C08
:10D0D000C9B2012917D1818C090714D1018D090624
:10D0E0000A0F03D1828D1206120F0ED0090F0129EB
:10D0F00003D1828D1206120F07D0032903D1808D30
:10D100000006000F01D0002070470120704700008A
:10D11000C00F00F0800701D0002070470120704749
:10D1200010B50448017AC90702D00078FFF766FA03
:10D1300010BD000030200020F0B5284C21461039E9
:10D1400048688B68227886469C46CF78667836E0B9
:10D15000182353436168521CC918A378D2B2934272
:10D1600000D100220B78022B02D0032B27D123E021
:10D1700003464D68194603E0A94204D00B46C9692D
:10D1800000291CD0F8E7002919D08B4208D1C069CA
:10D19000002805D1124F0125BD600025AC460127AE
:10D1A0000D68C969D961002909D00B685B190B604A
:10D1B00005E00174C06900E000210028F9D1964221
:10D1C000C6D10649624610398A604860CF70704502
:10D1D00001D00120F0BD0020F0BD0000B8200020EB
:10D1E00000100140F8B52C4E0446706800250090F0
:10D1F00041E0002C02D02046E46920E026481823B4
:10D200001030017842684B43491CC9B2D2180170F2
:10D210008378994200D105701178506801292CD18A
:10D22000017C002929D191684160D1688160116930
:10D23000C16051698161F178002900D0456043687F
:10D24000B268164F991A0902090AB94202D28268D5
:10D25000891806E0D11A09028268090A8A4202D9AD
:10D26000511A016000E0056045600121856001748C
:10D27000C56101F019FA002CBBD1074810300178C4
:10D2800040788142BAD171680098814201D0012072
:10D29000F8BD0020F8BD0000A8200020FFFF7F009F
:10D2A0000023A8B06D4A05211846FEF733FB00287D
:10D2B00001D0FEF7E1FA182269496846FDF73EFF02
:10D2C000FF210131674806904018079109910890A5
:10D2D0000323654A06A96846FEF7CAFB002801D069
:10D2E000FEF7CAFA614A62490320FFF73BF90028BA
:10D2F00001D0FEF7C1FA69460020FFF723F80028A5
:10D3000001D0FEF7B9FA6846007802287DD00020E7
:10D310006946087152485349001F00680590002370
:10D3200048225C3905A801F043F9002801D0FEF736
:10D33000A3FA6A460121002001F022F9002801D059
:10D34000FEF79AFA684601F011F9002801D0FEF7BD
:10D3500093FA484801F000F9002801D0FEF78CFA52
:10D360006946112008724448FDF70CFF82B2424919
:10D3700002A87CDF002801D0FEF77EFA002400948A
:10D3800010216846019401803C214180FF21848066
:10D390009131C1807ADF002801D0FEF76DFA37485D
:10D3A00000902E4869467830FEF7B6FE002801D07E
:10D3B000FEF762FA3C2101A8FDF7D9FE022168467A
:10D3C000017184710621C1713C2110A8FDF7CFFEC7
:10D3D000012510A8058228482021001F15901FA8AC
:10D3E000FDF7C5FE18A8C57740200094239024942B
:10D3F000234B1FAA10A901A8FEF75CFC002801D04E
:10D40000FEF73AFA1C21684600E01FE0FDF7AFFE88
:10D410000520C00301900F20000402900094032116
:10D4200068460173C4810474164805901648069036
:10D430006846FEF7BBFD002801D0FEF71DFA13A0D9
:10D44000FEF75EF80320FEF72DFD02E001205FE706
:10D4500048DF0028FCD0FEF70FFAF9E7842300200C
:10D4600024ED01008421002069E80100BDC4010011
:10D47000CD0C0000F1C00100F21F002087DC01008C
:10D48000BDDC0100C9DD010085C901000D0A55415F
:10D490005254205374617274210D0A0070B5144601
:10D4A00082880E4605462088111D4118921C99421B
:10D4B00001D8FE2A01D90C2070BD521C325420889C
:10D4C000FF21401C80B2208031542088401C80B253
:10D4D00020808119288801F0DFFA2188401880B265
:10D4E0002080AA88002A09D0A968002908D08019BC
:10D4F000FDF724FE2088A98840182080002070BDF8
:10D50000072070BDF8B50F4601781446054601297D
:10D5100002D16878002806D02088821C9A422DD833
:10D52000012902D006E00720F8BD69784118891C5E
:10D53000994223D8181A801E86B268460680218830
:10D54000B81C081869467DDF0028EDD1287802282C
:10D5500005D169460988B14201D809210AE00821AC
:10D56000012805D16878B04202D86A46108001E0EF
:10D570006846068068460088FE2801D90C20F8BD60
:10D580002288401CB8542088401C80B22080395426
:10D5900020886946401C208009884018208000208F
:10D5A000F8BDC20843075B0F0120895C9840084022
:10D5B00070470121890740180068002800D0012029
:10D5C0007047000000280FD00849094A096800BFC9
:10D5D00000BF00BF00BF00BF00BF00BF00BF91423F
:10D5E00000D000BF0138F2D1704700004C2000206D
:10D5F0000024F40070B50E4C00252078002801D0DE
:10D60000852513E00021A16061602161E160094886
:10D6100000680126304002D1032100F02FF800F00D
:10D62000F3FF002801D1044886612670284670BDAA
:10D630006C26002000E100E00005004038B5002025
:10D64000694608706846FEF78BFA084C2078002877
:10D6500001D1FFF7CFFFE068401CE0600120A0701F
:10D6600068460078FEF79AFA38BD00006C26002064
:10D6700010B5002801D1FFF7D9F810BD8207D30EED
:10D68000FF229A408907090E10B5994000280BDA4D
:10D6900003071B0F083B9C080C4BA400E318DC6934
:10D6A00094430C43DC6107E08408094BA400E418B0
:10D6B000236893430B432360C106C90E01208840B1
:10D6C000044908600449086010BD000000ED00E056
:10D6D00000E400E080E200E000E100E0F3B581B0AA
:10D6E000054600F0ABFB1F4F0028284617D0FFF778
:10D6F00085F8C0192030007F8009032802D0012856
:10D700000BD005E018480069E840C007C00F04D0FE
:10D710000321284600F066FAFEBD0221F9E700F079
:10D7200099FB0028F8D02846FFF768F804468000E7
:10D73000C11D0E4AF9318018026989B201263243AF
:10D740000261084600F080FA02980028E4D02846DA
:10D75000FFF754F8800038580028DDD00448A64070
:10D760004660FEBD80260020000500500065004098
:10D7700000630040FEB5044625480E4600192021EE
:10D7800041560027C8171346401C01D008273CE02B
:10D79000F27819462046FFF70DF80546401C33D0B5
:10D7A000B07800280BD005200007A1000918072039
:10D7B00000020918086802229043086007E000216F
:10D7C0007378204600910A46019100F0BFF9F07885
:10D7D000002810D00F48AA001018317802690E4BAB
:10D7E0001A400261E206D20C8907890B0A430169DB
:10D7F0000A43026109E00648327840192030017F6F
:10D8000092011143017700E004273846FEBD000075
:10D810008026002000650040FFE0FCFF0349096905
:10D82000C140C807C00F00D001207047000500505C
:10D8300070B5144D2879002801D0082070BD114919
:10D8400000204039421E0B182033401CC0B21A7011
:10D850002028F8D300242046FEF79EFF641CE4B283
:10D86000082CF8D303210620FFF708FFFF207D30A6
:10D8700000F0EAF901200449C0074860012028713E
:10D88000002070BDC02600200063004002480079DF
:10D89000002800D001207047C0260020F8B50646B9
:10D8A0000F4600791C2148431A4915464418E07E6A
:10D8B000002801D00820F8BD39463046FEF784F92B
:10D8C00065603869206028460025002813D0FF22B3
:10D8D0003068397F1D328550FF22306845328550CF
:10D8E000032330681B020C4AC01842603068000BEA
:10D8F00040B2FFF7C3FE05223068042112028018EF
:10D900000160E5752576A5750121E1762846A576A5
:10D91000F8BD0000C826002080000200F8B5037999
:10D920001C246343134C81251C19032766680023BC
:10D93000AD003F02002E02D00668F619B560E67D04
:10D94000002E0ED0237E002B07D06168002902D064
:10D950000068C01945601120F8BD216101232276BD
:10D9600004E0E2750025E1606576257600F01AF89E
:10D97000F8BD0000C826002070B5044600791C21BF
:10D98000074D48434019807E002808D1204600F00A
:10D99000BDFC20791C22012150434019817670BDC5
:10D9A000C8260020F8B5044600791C2148432649C2
:10D9B0004518A87E184302D1204600F0A7FC6868ED
:10D9C000002808D0812103222068890012028018D3
:10D9D00041600020F8BDFF204530216800220A5038
:10D9E000FF212531206800F041F90646FF21093169
:10D9F000206800F03BF90090FF214531206800F0DD
:10DA000035F90746009838433043E9D0304638436B
:10DA100007D12946206800F00DFCE87D697E884228
:10DA2000DED80020E875002E01D00320F8BD002FBD
:10DA300001D00F20F8BDA97E01200029216801D066
:10DA40000860C6E74860C4E7C826002070B50546F0
:10DA50000C4600791C21484308494318284600F029
:10DA600055F8002801D0112070BD9A7500209C60E7
:10DA70009882284600F004F870BD0000C8260020F7
:10DA8000F8B5044600791C2148431F490026451873
:10DA9000FF2720681D37C651206801218160294673
:10DAA000206800F085FE6968002913D027E0FF2771
:10DAB0000137FF211D31206800F0D8F8002802D17D
:10DAC000A88AB842F5D1A88AB84203D0294620686E
:10DAD00000F06EFEA88AA97D8842E8D3A98AC81FF3
:10DAE000F9380ED0FF271D373946206800F0BEF800
:10DAF0000028F9D020680121C1600020A8753046B7
:10DB0000F8BD0F26F9E70000C826002000791C2187
:10DB1000484303494018807D002800D00120704709
:10DB2000C826002070B552000A439900049D0A439C
:10DB30002902059E0A43310405240A432407800074
:10DB40000721001909024018026070BD70B552002B
:10DB50000A439900049D0A432902059E0A433104A1
:10DB600005240A43240780000721001909024018F0
:10DB7000026070BD70B552000A439900049D0A43CB
:10DB80002902059E0A43310405240A432407800024
:10DB90000721001909024018026070BD1CB500225F
:10DBA0000B46009211460192FFF7E4FF1CBD1CB525
:10DBB000002100910B46012201911146FFF7DAFF87
:10DBC0001CBD0522120780008218072000021018D1
:10DBD000026803231B049A430260026809040A4393
:10DBE0000260704705221207800082180720000299
:10DBF0001018026803231B049A4302600268090498
:10DC00000A43026070470000012282400348002955
:10DC100001D082607047C26070470000000500506C
:10DC200038B5084B05241B68009324026B46411845
:10DC300005E085005D592D192D69401C20C28142E7
:10DC4000F7D838BD84ED0100024940180021016079
:10DC50007047000000600040034940180068012838
:10DC600000D00020704700000060004040580028AD
:10DC700000D001207047032212028018406808403B
:10DC800000D001207047F8B516460D46002405E087
:10DC9000285DFDF745FF0028FAD1641CB442F7D394
:10DCA0006946112008700D20FDF73AFF0028FAD1CF
:10DCB0000A20FDF735FF0028FAD1F8BD10B500287D
:10DCC00009D0032806D10220FEF73EFC002801D02F
:10DCD000FDF7D2FD10BD00F02BFC10BD70B5044661
:10DCE000384D0088AE8888B03A283FD008DC02283A
:10DCF00044D0102815D011281CD0132806D124E0B8
:10DD000051283FD0522829D0552833D02878401C9C
:10DD1000C1B229706878814251D8FEF7A5F808B0E1
:10DD200070BD0720FEF710FC002801D0FDF7A4FD10
:10DD3000A08808E00020FEF707FC002801D0FDF7CE
:10DD40009BFD0020C043A880E9E700231A468521F7
:10DD500030467FDF07E0FDF78FFDE0E700231A463E
:10DD600019463046A9DF0028F5D1D8E7A08813214D
:10DD700076DFF8E7A088132176DFF4E7A08800219A
:10DD800067DFF0E71022A11D04A8FDF7D7F9684668
:10DD9000017C0029C3D0007E042803D0062801D0CE
:10DDA0000528BCD1022908D0012069460870FF204F
:10DDB00083308880A088A8DFD5E70220F5E72870A7
:10DDC000ADE70000E81F002010B50078002807D15B
:10DDD00004483B21808876DF002801D0FDF74CFD08
:10DDE00010BD0000E81F00200389CA1C9A18028198
:10DDF0004289511AC91E41817047000008B50021AF
:10DE0000009101460223024A0248FEF74BFF08BD7B
:10DE1000BCED01001821002008B500200090044846
:10DE200002230168034A0448FEF73CFF08BD0000D6
:10DE3000FC200020B4ED010018210020044908183E
:10DE400020214156042901DB012070470020704742
:10DE5000802600200449081820214156042901D2B7
:10DE600001207047002070478026002070B50C49C3
:10DE70000446486E042810D00A6E1218042A00D3F3
:10DE8000121F401C48661820424355180146284678
:10DE9000FDF76DF90120256070BD002070BD000008
:10DEA0002427002010B518481822016E51430C1881
:10DEB000406E00281FD0207A012802D0022816D1F7
:10DEC0000FE0A18AE08A091AFF2901DC8AB201E089
:10DED000FF220132E168800023690918181829DF40
:10DEE00001E0A08928DF112806D0002803D00921ED
:10DEF000204600F05BFA10BD0449FD22087810406E
:10DF000004221043087010BD24270020E4200020C4
:10DF1000F0B52B4C1C22216F85B051430D19297887
:10DF2000284E00270B00FDF7F5FA07190509090D22
:10DF30000D1119002946FFF71BF809E0294600F0EA
:10DF400075FE05E02946FEF755FD01E0FEF7ECFE03
:10DF500000282FD0B04202D1019710E00F2001908D
:10DF60002878022801D0032809D11548AA7D7830E5
:10DF7000016C89180164AA7D416C891A4164694663
:10DF80002846FEF7CDFD6846FEF700FE206F1C21F7
:10DF900048430019FDF7EBF8606F00280CD0216FA3
:10DFA000491C8907890F2167401E606704D0002043
:10DFB000FFF7AEFF05B0F0BD0420FEF70BFEF9E75A
:10DFC000B82700201D1D000010B5054801784A073C
:10DFD000920F04D1022211430170FFF763FF10BDBD
:10DFE000E4200020F8B507461D481C460078154679
:10DFF0000E46800701D40220F8BD002D01D0002C70
:10E0000028D10520F8BD01011648405C00281ED12A
:10E0100016E02068002F03D081883A8891420FD102
:10E02000002E03D001883288914209D1806828608F
:10E03000206868600B482030008928810020F8BDE6
:10E04000A088214600F060F80028E2D12060A08876
:10E05000401CA080A0880228D5D30A20F8BD00006B
:10E06000EC20002078280020F8B505464068244FB1
:10E0700000260C46002828D022490A68824224D86B
:10E080004968814221D3FFF745F800281DD028892F
:10E090003989884219D103CD083D8A68904214D14C
:10E0A0003A460020203A0125AD0203019B185B6827
:10E0B0008B4204D25B198B4201D9208011E0401CB5
:10E0C00080B20228F1D30020F8BD268000960AE035
:10E0D000009829688068884205D10098686038896E
:10E0E00028810120F8BD2088694600F00DF800283D
:10E0F000EED12088401C80B220800228E6D3E2E7DF
:10E100009828002018210020F8B50E460A68124908
:10E1100000014518002A04D05088800084180C346F
:10E1200001E06C6808340127BF026868C019A0428A
:10E130000FD92068401C0CD02046FEF70BFF0028AA
:10E1400002D001203460F8BD6088800004190C34CE
:10E15000EBE70020F8BD00007828002038B50C4619
:10E160000021009101460123074A0848FEF79AFD65
:10E17000002801D00E2038BD054A21010120891850
:10E180008873002038BD0000B0ED01001821002088
:10E190007828002038B5044613480025436C002B2E
:10E1A00008D0026CD500521C52072D18520F5B1E6E
:10E1B0004364026400200090A08AAB88800041186C
:10E1C0000A482A68FEF76EFDA18AAA888918A182EA
:10E1D000A17D491E0906090EA17501D101212174F5
:10E1E000002800D00E2038BD302800201821002043
:10E1F00070B501240B49600408600B494010886029
:10E20000094940398860094D6C602F20FFF7DAF921
:10E21000AC60074D00242F20AC60FFF7D3F9AC7041
:10E2200070BD000080E100E040130140001001409B
:10E23000A820002030B5FF220523CD7D002409321F
:10E240001B02C318002D8450986905D04B7ECA6804
:10E25000D054487E401C487630BD70B50024054639
:10E26000601C90B00007000F08A9103008940870D7
:10E27000601C0007000F103048708878F926304085
:10E28000801C88701C2101A8FCF771FF6946087981
:10E290001021084369460871029408A80494059463
:10E2A00007940690287808A9887103206946888415
:10E2B00011200094087048708878F7213040801C45
:10E2C0000840EF2108400126304369468870142138
:10E2D0000AA8FCF74CFF09A80A9068460B9069460B
:10E2E0000E8614204C8688862B4668880C330AAA32
:10E2F00001A9A2DF10B070BD1FB501246B461C70D0
:10E300001972019206C8684690471FBDFF23253346
:10E3100002680021D150FF2302680933D150006800
:10E32000012101607047000010B50446FDF70EF9A9
:10E3300000280CD0A007C00E002C0ADA2107090F14
:10E3400008398908144A89008918C96906E0134800
:10E3500010BDA108124A890089180968C140080641
:10E36000800F042811D200280FD002280DD00D49AB
:10E370004B68E206D20E01209040002B08D06209C3
:10E3800092008B5803438B5004E00448401C10BD9E
:10E3900005490860002010BD00ED00E001200000EC
:10E3A00000E400E0DC20002000E100E01FB50022D6
:10E3B0000092019202920392037A012B02D0022B67
:10E3C00011D106E06B461A7002690292828A9A8124
:10E3D00009E001236A4613708289C389D31A6A4609
:10E3E000138183895381426801920068826868467C
:10E3F00090471FBDFFB50746806A81B014460028CC
:10E400003DD0002538462030009033E00C20B96A1A
:10E4100068430E18B088801CFE2802D90C2005B075
:10E42000F0BD22880299401C885420881622401C86
:10E4300080B2208002990A542088401C80B220803B
:10E4400002994118308800F027FB2188401880B2DB
:10E450002080B288002A0AD0B16800290FD0029B20
:10E46000C018FCF76BFE2088B188401820806D1C16
:10E470000098EDB2007BA842C8D80020CFE7072063
:10E48000CDE7000070B504461248134D018A218281
:10E49000818A61820078002818D06879002815D117
:10E4A00000F0B8FB002811D028462030E0600220A0
:10E4B0000849207204202031C8700648002120300D
:10E4C000FDF7C4FB002804D1052000E00320A8705C
:10E4D000002070BD842400205020002070B5044628
:10E4E00011480426018B2182818B618200780F4DB7
:10E4F000002816D06879002813D100F08BFB002883
:10E500000FD028462030E06002202072064800210B
:10E510002030C670FDF79AFB002804D10620A870B1
:10E5200000E0AE70002070BD842400205020002048
:10E5300010B50020FEF708F8002801D0FDF79CF97F
:10E54000FDF75CFF002801D0FDF796F93CDF0028BD
:10E5500001D0FDF791F910BD002803D00249C86031
:10E56000002070470E207047042100201CB503498D
:10E5700001910091694660DF1CBD0000E81F00208A
:10E5800070B50E460546144614211046FCF7EFFD03
:10E590000120002120802161217326726572002DE7
:10E5A00000D0A072002070BD10B5FDF757F910BD66
:10E5B000F8B5002903D08C070025002C01D00720D6
:10E5C000F8BD0E4E0E4FB160728073603968012441
:10E5D000214003D00A49254680310C60094910DFEB
:10E5E000002803D0002DEBD03C60F8BD3470FFF75D
:10E5F00025F81620FFF798FEF8BD00000421002042
:10E6000000E100E0A9E50100014800787047000042
:10E6100004210020FEB51F4C0025A7686068029009
:10E620006846FEF75DFA0190FEF786FD0646019802
:10E63000002822D000230098616817E00E680A467F
:10E64000864202D9301A086012E0801BF3180026B7
:10E650001660D668D169B446002E07D0FE1836027F
:10E66000360A566066469660D56115460029E5D1A2
:10E6700028466160FEF7B6FD06E02846FEF7B2FDCB
:10E68000002801D1002E02D00298FEF7E3F8002006
:10E69000E070FEBDA82000200120024900050860AE
:10E6A0007047000000E200E010B50E4B59680029E9
:10E6B00006D002680C68A24204D8A21A0A60C1619E
:10E6C000586010BD0B4604E00B46C969121B0029B7
:10E6D00004D00C689442F7D3A41A0C600260C161A4
:10E6E000D86110BDA82000207CB50D460646002448
:10E6F00069460C706846FDF733FA01A800F004FA89
:10E7000000280DD0057046606846084900794870B9
:10E7100068460078FDF742FAFFF7BEFF20467CBD51
:10E72000684604240078FDF739FAF7E7B82000209E
:10E73000F8B51D4D6C68002C34D01C48002740688B
:10E74000A968401A0602360A2068B04218D8361A5C
:10E75000C7192246107CE46900280FD000201074ED
:10E76000EB68002B07D0916950699847002805D0C5
:10E77000FDF782F802E0516990698847002CE3D1E7
:10E7800029786878814206D1401CC0B2687002289E
:10E7900001D10020687004490006800D18310F5027
:10E7A000FFF77AFFF8BD0000A82000200015014007
:10E7B000FF221D32002383508B8A8A68D25C8B8AA9
:10E7C0005B1C8B82052109024018C261704770B53D
:10E7D0008EB005461C216846FCF7C9FC69460878DE
:10E7E0000C210843694608700024019403940494A2
:10E7F00005940694287808A9887002206946088440
:10E80000601C0007000F103007940877112048772C
:10E81000887FF9210840F721801C0840EF2108403B
:10E820000126304369468877142109A8FCF79FFC2C
:10E8300008A8099007A80A9069468E851420CC85FF
:10E84000088668882B1D09AAA2DF0EB070BD1FB50F
:10E8500000226B461A70197281680191827506C890
:10E86000684690471FBD000070B50178002907D0A9
:10E87000012901D0022902D14068FCF7FDFF70BDDB
:10E880000F4C0E4DA0782818FDF7D6F8A078401C44
:10E89000C2B2A818A2702038C07F0A2801D0142A5A
:10E8A000EDD306490748FDF799FC082803D0002856
:10E8B00001D0FCF7E1FF0020A07070BD70210020A6
:10E8C000E81F0020FC2300207CB50178264D00299C
:10E8D00034D001290CD002292DD16A461170C068AC
:10E8E000691C01900122C81DFFF718F8684630E046
:10E8F000406801781D48FCF7E8FF01261B4C002802
:10E9000003D069460E70019006E0A068E16881427C
:10E9100005D0002069460870084669688847A068E5
:10E92000E168081AA188884206D80F490122491CCB
:10E93000C81DFEF7F3FF7CBDAE707CBD0B480A49D5
:10E940001030FCF7A5FF002806D0032069460870A8
:10E950006846696888477CBD03490122084608303B
:10E96000FFF774F87CBD0000C820002004270020B9
:10E97000F0B50C46012185B005464902FFF77BF949
:10E98000032109026F180026002826D0FF21253117
:10E990002846FFF76BF900281FD0FF2025302E50A6
:10E9A00081208000B860A07E002801D1012068602D
:10E9B0000221684601700920C00129180868086012
:10E9C0000390E17D68460172E0680190E675267665
:10E9D00006CC6846083C90472DE004212846FFF706
:10E9E0004AF9002827D0FF2109312846FFF73EF9D0
:10E9F000002820D021462846FFF71CFCE07D617EE0
:10EA0000884218D1207E002807D0617EE268E07538
:10EA10002069E060267666760AE0A07E002801D1B3
:10EA20000120686081208000B860E675617EE26840
:10EA30002046FFF761FCFF271D3739462846FFF7C0
:10EA400015F900280FD0A08AA17D884204D2214662
:10EA50002846FFF7ADFE06E0EE51A17D002902D069
:10EA60002046FFF7F4FEFF27453739462846FFF7D3
:10EA7000FDF800280ED0EE51A07E002801D0012024
:10EA80002860E07D002805D0E675617EE2682046BA
:10EA9000FFF732FC05B0F0BD0870000A4870022094
:10EAA0007047000038B51549154A488890420FD084
:10EAB0004A78144C521CD2B24A70237B934208D33A
:10EAC000091D75DF002803D0A169002900D08847FF
:10EAD00038BD00254D70217C002907D03B2176DF11
:10EAE000002803D0A169002900D088476169002966
:10EAF000EED068460570884738BD000080200020B1
:10EB0000FFFF00005026002010B509494B788C7893
:10EB10005A1CD2B2944200D100220C78944201D106
:10EB2000002010BD0270486818214B43C01810BD6A
:10EB3000B8200020FFB583B016460C9D0D9C1F46E3
:10EB4000022200950194039800F00CF8002807D1E8
:10EB50003B461022314600950194039800F002F8DC
:10EB600007B0F0BDFFB583B0074600200C9C864679
:10EB7000268805463AE07868A90042181188684658
:10EB800081805188C1800022694601A865DF002884
:10EB900039D1684601780598814226D1704600280F
:10EBA00001D0002200E002222088891842180D9925
:10EBB0008A4227D8714600290AD1401C80B22080A1
:10EBC000069A049911542088401C20800120864612
:10EBD000218806980A18694601A865DF002812D125
:10EBE000694620880978401820806D1C3888A84222
:10EBF000C1DC704600280AD02088801B401E80B2ED
:10EC0000FF2802D90C2007B0F0BD069988550020D6
:10EC1000F9E7000004480179002902D1007B0028AF
:10EC200000D001207047000070200020F8B50C468D
:10EC3000498A374A09018E18002805D0E1883046F4
:10EC4000FFF7D2F80120F8BD3189706889004518B6
:10EC5000217C2F480027EC380B00FCF75BFC070FEA
:10EC6000311B2B05445557004760A16901602848B6
:10EC70002849EC38FFF7F8F9002809D02946012384
:10EC8000221D25480097FEF70DF80221217424E08B
:10EC90000A20F8BD2246294601230C3208311E48BD
:10ECA0000097FDF7FFFFA17D002901D0032213E0AB
:10ECB000012211E029462046FFF76CFA07461BE0C7
:10ECC000224601230832291D13480097FDF7EAFF69
:10ECD0002178032905D006222274002812D00E279D
:10ECE0000CE00522F8E70B494068891E4988FFF7C8
:10ECF00035FA074606202074002F03D0E1883046FD
:10ED0000FFF772F83846F8BD044FF7E70F27F5E72D
:10ED100078280020EE200020182100201D1D000072
:10ED2000010000070B0000000A00000008000000BE
:10ED3000090000000000000000E0D70115161718B8
:10ED400011121314182400203824002064240020F9
:10ED50001100030021C401001200030021C40100BE
:10ED60001300030021C401001400030021C40100AA
:10ED7000302600209ECADC240EE5A9E093F3A3B55B
:10ED80000000406E00000050E42600200300000058
:10ED9000FFFFFFFFFFFFFFFFFFFFFFFFFFFFFFFF83
:10EDA000000000000000000000E0D70103000000A8
:10EDB0000000FFFFDEC0ADDEFF011EF1DEC0ADDEF4
:10EDC000FE011EF1E4ED0100E81F002040010000FB
:10EDD000B8B1010018EE010028210020800F0000CA
:10EDE0003EB5010033000A26FFFF0100020E4F6E00
:10EDF0006F726469635F646576696365032224F4F6
:10EE000055F0250020055610260020044D20004016
:08EE10003781CC010003FF0073
:040000050001B0C185
:00000001FF
